{
  "address": "0x2bD2c791Db84E824B6CeCc9566D82318a6a1e748",
  "abi": [
    {
      "inputs": [
        {
          "internalType": "address",
          "name": "exampleExternalContractAddress",
          "type": "address"
        }
      ],
      "stateMutability": "nonpayable",
      "type": "constructor"
    },
    {
      "anonymous": false,
      "inputs": [
        {
          "indexed": true,
          "internalType": "address",
          "name": "staker",
          "type": "address"
        },
        {
          "indexed": false,
          "internalType": "uint256",
          "name": "amount",
          "type": "uint256"
        }
      ],
      "name": "Stake",
      "type": "event"
    },
    {
      "inputs": [
        {
          "internalType": "address",
          "name": "",
          "type": "address"
        }
      ],
      "name": "balances",
      "outputs": [
        {
          "internalType": "uint256",
          "name": "",
          "type": "uint256"
        }
      ],
      "stateMutability": "view",
      "type": "function"
    },
    {
      "inputs": [],
      "name": "deadline",
      "outputs": [
        {
          "internalType": "uint256",
          "name": "",
          "type": "uint256"
        }
      ],
      "stateMutability": "view",
      "type": "function"
    },
    {
      "inputs": [],
      "name": "exampleExternalContract",
      "outputs": [
        {
          "internalType": "contract ExampleExternalContract",
          "name": "",
          "type": "address"
        }
      ],
      "stateMutability": "view",
      "type": "function"
    },
    {
      "inputs": [],
      "name": "execute",
      "outputs": [],
      "stateMutability": "nonpayable",
      "type": "function"
    },
    {
      "inputs": [],
      "name": "stake",
      "outputs": [],
      "stateMutability": "payable",
      "type": "function"
    },
    {
      "inputs": [],
      "name": "threshold",
      "outputs": [
        {
          "internalType": "uint256",
          "name": "",
          "type": "uint256"
        }
      ],
      "stateMutability": "view",
      "type": "function"
    },
    {
      "inputs": [],
      "name": "timeLeft",
      "outputs": [
        {
          "internalType": "uint256",
          "name": "",
          "type": "uint256"
        }
      ],
      "stateMutability": "view",
      "type": "function"
    },
    {
      "inputs": [],
      "name": "withdraw",
      "outputs": [],
      "stateMutability": "nonpayable",
      "type": "function"
    },
    {
      "stateMutability": "payable",
      "type": "receive"
    }
  ],
  "transactionHash": "0x273672ba1d4ede3e87b10573518a1c952c71266335b775ac7e77729fc951df46",
  "args": [
    "0x88880af471A03E51C9B4360874Ca18dB06De86a2"
  ],
  "numDeployments": 2,
  "solcInputHash": "48b95c8ff1a45b49867024f30c197c97",
  "bytecode": "0x6080604052610011426203f480610064565b60025534801561002057600080fd5b5060405161072c38038061072c83398101604081905261003f9161008b565b600080546001600160a01b0319166001600160a01b03929092169190911790556100bb565b8082018082111561008557634e487b7160e01b600052601160045260246000fd5b92915050565b60006020828403121561009d57600080fd5b81516001600160a01b03811681146100b457600080fd5b9392505050565b610662806100ca6000396000f3fe60806040526004361061007f5760003560e01c80633ccfd60b1161004e5780633ccfd60b1461010657806342cde4e81461011b57806361461954146101375780639f75f2271461014c57600080fd5b80631300a6d11461009357806327e235e3146100bb57806329dcb0cf146100e85780633a4b66f1146100fe57600080fd5b3661008e5761008c610184565b005b600080fd5b34801561009f57600080fd5b506100a861027a565b6040519081526020015b60405180910390f35b3480156100c757600080fd5b506100a86100d6366004610598565b60016020526000908152604090205481565b3480156100f457600080fd5b506100a860025481565b61008c610184565b34801561011257600080fd5b5061008c61029e565b34801561012757600080fd5b506100a8670de0b6b3a764000081565b34801561014357600080fd5b5061008c61044d565b34801561015857600080fd5b5060005461016c906001600160a01b031681565b6040516001600160a01b0390911681526020016100b2565b60025442106101da5760405162461bcd60e51b815260206004820152601860248201527f5374616b696e6720706572696f642068617320656e646564000000000000000060448201526064015b60405180910390fd5b6000341161021f5760405162461bcd60e51b815260206004820152601260248201527109aeae6e840e6cadcc840e6dedaca408aa8960731b60448201526064016101d1565b336000908152600160205260408120805434929061023e9084906105de565b909155505060405134815233907febedb8b3c678666e7f36970bc8f57abf6d8fa2e828c0da91ea5b75bf68ed101a9060200160405180910390a2565b6000600254421061028b5750600090565b4260025461029991906105f7565b905090565b6002544210156102f05760405162461bcd60e51b815260206004820152601b60248201527f446561646c696e6520686173206e6f742070617373656420796574000000000060448201526064016101d1565b670de0b6b3a764000047106103525760405162461bcd60e51b815260206004820152602260248201527f5468726573686f6c6420776173206d65742c2063616e6e6f7420776974686472604482015261617760f01b60648201526084016101d1565b336000908152600160205260409020546103a75760405162461bcd60e51b81526020600482015260166024820152754e6f2062616c616e636520746f20776974686472617760501b60448201526064016101d1565b33600081815260016020526040808220805490839055905190929083908381818185875af1925050503d80600081146103fc576040519150601f19603f3d011682016040523d82523d6000602084013e610401565b606091505b50509050806104495760405162461bcd60e51b81526020600482015260146024820152732330b4b632b2103a379039b2b7321022ba3432b960611b60448201526064016101d1565b5050565b60025442101561049f5760405162461bcd60e51b815260206004820152601b60248201527f446561646c696e6520686173206e6f742070617373656420796574000000000060448201526064016101d1565b670de0b6b3a76400004710158015610529575060008054906101000a90046001600160a01b03166001600160a01b0316639d9a7fe96040518163ffffffff1660e01b8152600401602060405180830381865afa158015610503573d6000803e3d6000fd5b505050506040513d601f19601f82011682018060405250810190610527919061060a565b155b156105965760008054906101000a90046001600160a01b03166001600160a01b031663522e1177476040518263ffffffff1660e01b81526004016000604051808303818588803b15801561057c57600080fd5b505af1158015610590573d6000803e3d6000fd5b50505050505b565b6000602082840312156105aa57600080fd5b81356001600160a01b03811681146105c157600080fd5b9392505050565b634e487b7160e01b600052601160045260246000fd5b808201808211156105f1576105f16105c8565b92915050565b818103818111156105f1576105f16105c8565b60006020828403121561061c57600080fd5b815180151581146105c157600080fdfea264697066735822122099409ebe8a54d7d0c8d6f1075f8fd370a4ce44e3f48a561ab19f088d831ca14564736f6c63430008140033",
  "devdoc": {
    "kind": "dev",
    "methods": {},
    "version": 1
  },
  "userdoc": {
    "kind": "user",
    "methods": {},
    "version": 1
  },
  "storageLayout": {
    "storage": [
      {
        "astId": 19,
        "contract": "contracts/Staker.sol:Staker",
        "label": "exampleExternalContract",
        "offset": 0,
        "slot": "0",
        "type": "t_contract(ExampleExternalContract)12"
      },
      {
        "astId": 23,
        "contract": "contracts/Staker.sol:Staker",
        "label": "balances",
        "offset": 0,
        "slot": "1",
        "type": "t_mapping(t_address,t_uint256)"
      },
      {
        "astId": 32,
        "contract": "contracts/Staker.sol:Staker",
        "label": "deadline",
        "offset": 0,
        "slot": "2",
        "type": "t_uint256"
      }
    ],
    "types": {
      "t_address": {
        "encoding": "inplace",
        "label": "address",
        "numberOfBytes": "20"
      },
      "t_contract(ExampleExternalContract)12": {
        "encoding": "inplace",
        "label": "contract ExampleExternalContract",
        "numberOfBytes": "20"
      },
      "t_mapping(t_address,t_uint256)": {
        "encoding": "mapping",
        "key": "t_address",
        "label": "mapping(address => uint256)",
        "numberOfBytes": "32",
        "value": "t_uint256"
      },
      "t_uint256": {
        "encoding": "inplace",
        "label": "uint256",
        "numberOfBytes": "32"
      }
    }
  }
}